{
  "contractName": "Emitter",
  "abi": [
    {
      "anonymous": false,
      "inputs": [],
      "name": "BeginEvents",
      "type": "event"
    },
    {
      "anonymous": false,
      "inputs": [
        {
          "indexed": true,
          "name": "receiver",
          "type": "address"
        },
        {
          "indexed": true,
          "name": "token",
          "type": "address"
        },
        {
          "indexed": false,
          "name": "amount",
          "type": "uint256"
        }
      ],
      "name": "Transfer",
      "type": "event"
    },
    {
      "anonymous": false,
      "inputs": [],
      "name": "EndEvents",
      "type": "event"
    },
    {
      "constant": false,
      "inputs": [
        {
          "name": "receivers",
          "type": "address[]"
        },
        {
          "name": "tokens",
          "type": "address[]"
        },
        {
          "name": "amounts",
          "type": "uint256[]"
        }
      ],
      "name": "emitEvents",
      "outputs": [],
      "payable": false,
      "stateMutability": "nonpayable",
      "type": "function"
    }
  ],
  "bytecode": "0x608060405234801561001057600080fd5b50610389806100206000396000f3fe608060405260043610610041576000357c0100000000000000000000000000000000000000000000000000000000900463ffffffff1680637da2938a14610046575b600080fd5b34801561005257600080fd5b506102316004803603606081101561006957600080fd5b810190808035906020019064010000000081111561008657600080fd5b82018360208201111561009857600080fd5b803590602001918460208302840111640100000000831117156100ba57600080fd5b919080806020026020016040519081016040528093929190818152602001838360200280828437600081840152601f19601f8201169050808301925050505050505091929192908035906020019064010000000081111561011a57600080fd5b82018360208201111561012c57600080fd5b8035906020019184602083028401116401000000008311171561014e57600080fd5b919080806020026020016040519081016040528093929190818152602001838360200280828437600081840152601f19601f820116905080830192505050505050509192919290803590602001906401000000008111156101ae57600080fd5b8201836020820111156101c057600080fd5b803590602001918460208302840111640100000000831117156101e257600080fd5b919080806020026020016040519081016040528093929190818152602001838360200280828437600081840152601f19601f820116905080830192505050505050509192919290505050610233565b005b6000835190507f875d966eda6487c7c1a52ef9d6ec077de2fe63a903c4ed02db0d11f4528a001160405160405180910390a160008090505b8181101561032a57838181518110151561028157fe5b9060200190602002015173ffffffffffffffffffffffffffffffffffffffff1685828151811015156102af57fe5b9060200190602002015173ffffffffffffffffffffffffffffffffffffffff167fddf252ad1be2c89b69c2b068fc378daa952ba7f163c4a11628f55a4df523b3ef85848151811015156102fe57fe5b906020019060200201516040518082815260200191505060405180910390a3808060010191505061026b565b507f30beee9487f19272cea486f3940e1f4a5ce5d4f4fecb20dbf6979d63e695e5d760405160405180910390a15050505056fea165627a7a72305820650f25b8abd4b8e7f9b4428413d06590d1a55ca48f362990346605239464787c0029",
  "source": "\r\ncontract Emitter {\r\n    event BeginEvents();\r\n    event Transfer(address indexed receiver, address indexed token, uint256 amount);\r\n    event EndEvents();\r\n    \r\n    function emitEvents(address[] memory receivers, address[] memory tokens, uint256[] memory amounts) public {\r\n        uint nevents = receivers.length;\r\n        \r\n        emit BeginEvents();\r\n        \r\n        for (uint k = 0; k < nevents; k++)\r\n            emit Transfer(receivers[k], tokens[k], amounts[k]);\r\n            \r\n        emit EndEvents();\r\n    }\r\n}",
  "sourcePath": "C:/git/SoliditySamples/exeth/events/contracts/Emitter.sol",
  "compiler": {
    "name": "solc",
    "version": "0.5.0+commit.1d4f565a.Emscripten.clang"
  },
  "schemaVersion": "3.0.8",
  "updatedAt": "2019-08-29T15:25:05.458Z",
  "devdoc": {
    "methods": {}
  },
  "userdoc": {
    "methods": {}
  }
}